:020000040800F2
:1000000000280020D10B0008610B0008670B0008D6
:100010006D0B0008730B0008790B0008000000004E
:100020000000000000000000000000007F0B00083E
:100030008B0B000800000000970B0008A30B0008C2
:10004000190C0008190C0008190C0008190C0008FC
:10005000190C0008190C0008190C0008190C0008EC
:10006000190C0008190C0008190C0008190C0008DC
:10007000190C0008190C0008190C0008190C0008CC
:10008000190C0008190C0008190C0008190C0008BC
:10009000190C0008190C0008190C0008190C0008AC
:1000A000190C0008190C0008190C0008190C00089C
:1000B000B10B0008190C000800000000190C000822
:1000C000190C00080000000000000000190C0008D6
:1000D00000000000190C0008190C000800000000C6
:1000E000190C0008190C0008190C00080000000089
:1000F0000000000000000000000000000000000000
:0C01000000000000000000005FF808F1A3
:10010C0010B5054C237833B9044B13B10448AFF345
:10011C0000800123237010BD24000020000000008B
:10012C001C22000808B5034B1BB103490348AFF36D
:10013C00008008BD00000000280000201C220008E0
:10014C0080B582B000AF78607B68092B00F28081AB
:10015C0001A252F823F000BF8D010008D501000860
:10016C001D02000865020008AD020008F502000837
:10017C003D03000885030008CD03000815040008A2
:10018C0000220121B44801F02DF800220221B248CE
:10019C0001F028F800220421AF4801F023F80022D6
:1001AC000821AD4801F01EF800221021AA4801F0E8
:1001BC0019F800222021A84801F014F8012240214E
:1001CC00A54801F00FF843E101220121A24801F0FA
:1001DC0009F800220221A04801F004F800220421B1
:1001EC009D4800F0FFFF012208219B4800F0FAFF18
:1001FC0001221021984800F0F5FF01222021964899
:10020C0000F0F0FF01224021934800F0EBFF1FE1CA
:10021C0000220121904800F0E5FF002202218E48C7
:10022C0000F0E0FF012204218B4800F0DBFF0022EC
:10023C000821894800F0D6FF00221021864800F0E2
:10024C00D1FF01222021844800F0CCFF0022402164
:10025C00814800F0C7FFFBE0002201217E4800F03E
:10026C00C1FF002202217C4800F0BCFF00220421C7
:10027C00794800F0B7FF00220821774800F0B2FF60
:10028C0001221021744800F0ADFF01222021724898
:10029C0000F0A8FF002240216F4800F0A3FFD7E038
:1002AC00012201216C4800F09DFF002202216A48C6
:1002BC0000F098FF00220421674800F093FF012210
:1002CC000821654800F08EFF01221021624800F0E1
:1002DC0089FF00222021604800F084FF0022402189
:1002EC005D4800F07FFFB3E0002201215A4800F086
:1002FC0079FF01220221584800F074FF00220421EA
:10030C00554800F06FFF00220821534800F06AFFA7
:10031C0001221021504800F065FF002220214E4898
:10032C0000F060FF002240214B4800F05BFF8FE0A3
:10033C0000220121484800F055FF012202214648C5
:10034C0000F050FF00220421434800F04BFF002234
:10035C000821414800F046FF002210213E4800F0E1
:10036C0041FF002220213C4800F03CFF00224021AC
:10037C00394800F037FF6BE000220121364800F0CD
:10038C0031FF00220221344800F02CFF002204210E
:10039C00314800F027FF012208212F4800F022FFEE
:1003AC00012210212C4800F01DFF012220212A4897
:1003BC0000F018FF01224021274800F013FF47E00E
:1003CC0000220121244800F00DFF002202212248C6
:1003DC0000F008FF002204211F4800F003FF002258
:1003EC0008211D4800F0FEFE002210211A4800F0E2
:1003FC00F9FE00222021184800F0F4FE00224021D2
:10040C00154800F0EFFE23E000220121124800F015
:10041C00E9FE00220221104800F0E4FE0022042133
:10042C000D4800F0DFFE002208210B4800F0DAFE38
:10043C0001221021084800F0D5FE00222021064898
:10044C0000F0D0FE00224021034800F0CBFE00BF9C
:10045C0000BF0837BD4680BD000C014080B582B09E
:10046C0000AF78607B68032B22D801A252F823F0EE
:10047C008D04000899040008A5040008B1040008C4
:10048C000E4B1B681846FFF75BFE12E00B4B5B68CC
:10049C001846FFF755FE0CE0084B9B681846FFF713
:1004AC004FFE06E0054BDB681846FFF749FE00E0FF
:1004BC0000BF00BF0837BD4680BD00BF4400002010
:1004CC0080B400AF294B1B68092B06DC284B00229B
:1004DC001A60264B1B68264A5360244B1B68092B59
:1004EC0018DD224B1B68234A82FB03129210DB1788
:1004FC00D31A1F4A13601D4B19681E4B83FB012333
:10050C009A10CB17D21A13469B0013445B00CA1ADD
:10051C00174B5A60184B1B68092B06DC144B002236
:10052C009A60154B1B68124AD360134B1B68092B3E
:10053C0018DD114B1B680F4A82FB03129210DB175C
:10054C00D31A0B4A93600C4B19680A4B83FB01239B
:10055C009A10CB17D21A13469B0013445B00CA1A8D
:10056C00034BDA6000BFBD4680BC70470000002022
:10057C0044000020676666660400002080B483B0E7
:10058C0000AF7860074B1B687A6892FBF3F3064A5E
:10059C001360064B00221A6000BF0C37BD4680BCAE
:1005AC00704700BF0C0000205400002058000020B1
:1005BC0080B400AF094B1B68002B0BDD074B1B688D
:1005CC00013B064A1360054B1B68002B02D1044B00
:1005DC0001221A6000BFBD4680BC70475400002049
:1005EC005800002080B483B000AF7860074B1B68C4
:1005FC007A6892FBF3F3064A1360064B00221A60EA
:10060C0000BF0C37BD4680BC704700BF10000020F7
:10061C005C0000206000002080B400AF094B1B6818
:10062C00002B0BDD074B1B68013B064A1360054B87
:10063C001B68002B02D1044B01221A6000BFBD467F
:10064C0080BC70475C0000206000002080B483B048
:10065C0000AF7860074B1B687A6892FBF3F3064A8D
:10066C001360064B00221A6000BF0C37BD4680BCDD
:10067C00704700BF140000206400002068000020B8
:10068C0080B400AF094B1B68002B0BDD074B1B68BC
:10069C00013B064A1360054B1B68002B02D1044B2F
:1006AC0001221A6000BFBD4680BC70476400002068
:1006BC006800002080B582B000AF00F0A9FA00F00D
:1006CC0003F900F089F900F03BF9764801F0E8F9FC
:1006DC004FF47A70FFF752FFFA20FFF783FF4FF4C5
:1006EC007A70FFF7B3FF00237B606F4B1B68012B05
:1006FC0029D16E4B1B6801336C4A13606B4B1B6822
:10070C003B2B07DD694B00221A60694B1B680133D8
:10071C00674A1360664B1B683B2B07DD644B00225A
:10072C001A60644B1B680133624A1360614B1B688F
:10073C00172B02DD5F4B00221A60FFF7C1FE4FF44E
:10074C007A70FFF71BFF5C4B1B68012B0BD1202130
:10075C005A4800F05FFD1021584800F05BFD4FF443
:10076C007A70FFF773FF564B1B68012BBDD1554BAD
:10077C001B680422934202DB524B00221A607B68F6
:10078C00002B20D1002240214C4800F02BFD0122EF
:10079C0080214A4800F026FD01224FF48071474821
:1007AC0000F020FD01224FF40071444800F01AFDC6
:1007BC00444B1B685A1C43490A601846FFF74EFE0F
:1007CC0001237B606AE07B68012B20D10122402150
:1007DC003A4800F007FD00228021384800F002FD65
:1007EC0001224FF48071354800F0FCFC01224FF4DB
:1007FC000071324800F0F6FC324B1B685A1C314930
:10080C000A601846FFF72AFE02237B6046E07B68ED
:10081C00022B20D101224021284800F0E3FC0122C8
:10082C008021264800F0DEFC00224FF48071234822
:10083C0000F0D8FC01224FF40071204800F0D2FCEB
:10084C00204B1B685A1C1F490A601846FFF706FE0E
:10085C0003237B6022E07B68032B1FD10122402104
:10086C00164800F0BFFC01228021144800F0BAFCAD
:10087C0001224FF48071114800F0B4FC00224FF4B7
:10088C0000710E4800F0AEFC0E4B1B685A1C0D4953
:10089C000A601846FFF7E2FD00237B60FA20FFF7A1
:1008AC00A1FE22E76C000020580000200800002068
:1008BC000400002000000020680000200008014017
:1008CC00600000204000002080B590B000AF07F120
:1008DC00180328220021184601F092FC3B1D00222F
:1008EC001A605A609A60DA601A610223BB610123B4
:1008FC00BB621023FB6200237B6307F118031846CD
:10090C0000F0A2FC0346002B01D000F0C7F80F2327
:10091C007B600023BB600023FB6000233B61002352
:10092C007B613B1D0021184600F00EFF0346002B97
:10093C0001D000F0B3F800BF4037BD4680BD0000C9
:10094C0080B586B000AF07F1080300221A605A6028
:10095C009A60DA603B4600221A605A601D4B4FF0D9
:10096C0080421A601B4B41F63F725A60194B0022B1
:10097C009A60184B0922DA60164B00221A61154B4B
:10098C0000229A61134801F03BF80346002B01D07A
:10099C0000F084F84FF48053BB6007F1080319464C
:1009AC000C4801F0B9F90346002B01D000F076F8A1
:1009BC0000233B6000237B603B461946054801F051
:1009CC0091FB0346002B01D000F068F800BF1837EC
:1009DC00BD4680BD6C00002080B586B000AF07F12D
:1009EC00080300221A605A609A60DA60214B9B69F6
:1009FC00204A43F0040393611E4B9B6903F00403EC
:100A0C007B607B681B4B9B691A4A43F0080393611C
:100A1C00184B9B6903F008033B603B6800224FF4C2
:100A2C007C71154800F0DEFB00227F21134800F09A
:100A3C00D9FB4FF47C73BB600123FB6000233B614B
:100A4C0002237B6107F1080319460B4800F050FAAA
:100A5C007F23BB600123FB6000233B6102237B618E
:100A6C0007F108031946054800F042FA00BF183791
:100A7C00BD4680BD0010024000080140000C014042
:100A8C0080B582B000AF7860FFF792FDFFF7C4FD30
:100A9C00FFF7F6FD00BF0837BD4680BD80B400AF40
:100AAC0072B600BFFEE7000080B485B000AF154BF6
:100ABC009B69144A43F001039361124B9B6903F049
:100ACC000103BB60BB680F4BDB690E4A43F08053DC
:100ADC00D3610C4BDB6903F080537B607B680A4B62
:100AEC005B68FB60FB6823F0E063FB60FB6843F032
:100AFC008063FB60044AFB68536000BF1437BD463B
:100B0C0080BC7047001002400000014080B584B0EA
:100B1C0000AF78607B681B68B3F1804F13D10C4B2E
:100B2C00DB690B4A43F00103D361094BDB6903F02A
:100B3C000103FB60FB68002200211C2000F0A1F9DE
:100B4C001C2000F0BAF900BF1037BD4680BD00BFB5
:100B5C000010024080B400AFFEE780B400AFFEE7A7
:100B6C0080B400AFFEE780B400AFFEE780B400AF06
:100B7C00FEE780B400AF00BFBD4680BC704780B4B8
:100B8C0000AF00BFBD4680BC704780B400AF00BF53
:100B9C00BD4680BC704780B500AF00F07FF800BF49
:100BAC0080BD000080B500AF024800F0C5FF00BF5B
:100BBC0080BD00BF6C00002080B400AF00BFBD46FC
:100BCC0080BC7047FFF7F8FF0B480C490C4A002318
:100BDC0002E0D458C4500433C4188C42F9D3094AE7
:100BEC00094C002301E013600432A242FBD301F054
:100BFC00E3FAFFF75FFD704700000020240000209F
:100C0C006022000824000020B8000020FEE700004D
:100C1C0080B500AF084B1B68074A43F01003136004
:100C2C00032000F023F90F2000F008F8FFF73CFF39
:100C3C000023184680BD00BF0020024080B582B062
:100C4C0000AF7860124B1A68124B1B7819464FF4A0
:100C5C007A73B3FBF1F3B2FBF3F3184600F03BF9F4
:100C6C000346002B01D001230EE07B680F2B0AD822
:100C7C00002279684FF0FF3000F003F9064A7B68D8
:100C8C001360002300E0012318460837BD4680BDE1
:100C9C0018000020200000201C00002080B400AFB1
:100CAC00054B1B781A46054B1B681344034A13600B
:100CBC0000BFBD4680BC704720000020B40000205F
:100CCC0080B400AF024B1B681846BD4680BC704711
:100CDC00B400002080B485B000AF78607B6803F06E
:100CEC000703FB600C4BDB68BB60BA684FF6FF0375
:100CFC001340BB60FB681A02BB68134343F0BF632D
:100D0C0043F40033BB60044ABB68D36000BF1437A4
:100D1C00BD4680BC704700BF00ED00E080B400AF62
:100D2C00044BDB681B0A03F007031846BD4680BC66
:100D3C00704700BF00ED00E080B483B000AF034605
:100D4C00FB7197F90730002B0BDBFB7903F01F02CB
:100D5C00064997F907305B09012000FA02F241F8C5
:100D6C00232000BF0C37BD4680BC704700E100E07B
:100D7C0080B483B000AF03463960FB7197F907303C
:100D8C00002B0ADB3B68DAB20C4997F907301201E9
:100D9C00D2B20B4483F800230AE03B68DAB208496C
:100DAC00FB7903F00F03043B1201D2B20B441A7609
:100DBC0000BF0C37BD4680BC704700BF00E100E0AF
:100DCC0000ED00E080B489B000AFF860B9607A60E3
:100DDC00FB6803F00703FB61FB69C3F10703042BFA
:100DEC0028BF0423BB61FB690433062B02D9FB69C2
:100DFC00033B00E000237B614FF0FF32BB6902FA3A
:100E0C0003F3DA43BB681A407B699A404FF0FF3119
:100E1C007B6901FA03F3D9437B680B4013431846F3
:100E2C002437BD4680BC704780B582B000AF786077
:100E3C007B68013BB3F1807F01D301230FE00A4AA9
:100E4C007B68013B53600F214FF0FF30FFF790FFA1
:100E5C00054B00229A60044B07221A6000231846A7
:100E6C000837BD4680BD00BF10E000E080B582B001
:100E7C0000AF78607868FFF72DFF00BF0837BD46DC
:100E8C0080BD80B586B000AF0346B9607A60FB7355
:100E9C0000237B61FFF742FF78617A68B968786953
:100EAC00FFF790FF024697F90F3011461846FFF7EF
:100EBC005FFF00BF1837BD4680BD80B582B000AF64
:100ECC000346FB7197F907301846FFF735FF00BF53
:100EDC000837BD4680BD80B582B000AF78607868B9
:100EEC00FFF7A2FF034618460837BD4680BD000039
:100EFC0080B48BB000AF7860396000237B62002334
:100F0C003B6248E101227B6A02FA03F3FB613B6816
:100F1C001B68FA691340BB61BA69FB699A4240F0DD
:100F2C0037813B685B68A34A93425ED0A14A9342E7
:100F3C0075D8A14A934258D09F4A93426FD89F4A82
:100F4C00934252D09D4A934269D89D4A93424CD0C9
:100F5C009B4A934263D89B4A934246D0994A934208
:100F6C005DD8122B2AD8122B59D801A252F823F093
:100F7C00F70F0008D10F0008E30F00082510000838
:100F8C002B1000082B1000082B1000082B10000849
:100F9C002B1000082B1000082B1000082B10000839
:100FAC002B1000082B1000082B1000082B10000829
:100FBC002B100008D90F0008ED0F0008824A93424D
:100FCC0013D02CE03B68DB683B6229E03B68DB68B4
:100FDC0004333B6224E03B68DB6808333B621FE070
:100FEC003B68DB680C333B621AE03B689B68002B68
:100FFC0002D104233B6213E03B689B68012B05D1B3
:10100C0008233B627B68FA691A6109E008233B629A
:10101C007B68FA695A6103E000233B6200E000BF81
:10102C00BB69FF2B01D87B6801E07B6804337B61D3
:10103C00BB69FF2B02D87B6A9B0002E07B6A083BF2
:10104C009B003B617B691A680F213B6901FA03F332
:10105C00DB431A40396A3B6901FA03F31A437B6993
:10106C001A603B685B6803F08053002B00F09080A3
:10107C00564B9B69554A43F001039361534B9B6953
:10108C0003F00103BB60BB68514A7B6A9B080233C7
:10109C0052F82330FB607B6A03F003039B000F22A2
:1010AC0002FA03F3DB43FA681340FB607B68494A9E
:1010BC0093420DD07B68484A934207D07B68474ADD
:1010CC00934201D1022304E0032302E0012300E058
:1010DC0000237A6A02F0030292009340FA681343E9
:1010EC00FB603B497B6A9B080233FA6841F823207A
:1010FC003B685B6803F48013002B06D0384B9A686E
:10110C003749BB6913438B6006E0354B9A68BB6962
:10111C00DB43334913408B603B685B6803F400137B
:10112C00002B06D02E4BDA682D49BB691343CB60DC
:10113C0006E02B4BDA68BB69DB4329491340CB60D3
:10114C003B685B6803F40033002B06D0244B5A68D1
:10115C002349BB6913434B6006E0214B5A68BB69BA
:10116C00DB431F4913404B603B685B6803F48033DF
:10117C00002B06D01A4B1A681949BB6913430B6034
:10118C0006E0174B1A68BB69DB43154913400B602B
:10119C007B6A01337B623B681A687B6A22FA03F331
:1011AC00002B7FF4AFAE00BF00BF2C37BD4680BC18
:1011BC00704700BF000032100000311000002210F8
:1011CC00000021100000121000001110001002404D
:1011DC000000014000080140000C014000100140DB
:1011EC000004014080B483B000AF78600B467B8074
:1011FC0013467B707B78002B03D07A887B681A614E
:10120C0003E07B881A047B681A6100BF0C37BD466B
:10121C0080BC704780B485B000AF78600B467B8093
:10122C007B68DB68FB607A88FB6813401A04FB68F8
:10123C00D9437B880B401A437B681A6100BF143773
:10124C00BD4680BC7047000080B586B000AF7860AA
:10125C007B68002B01D101236CE27B681B6803F0D7
:10126C000103002B00F08780924B5B6803F00C03AA
:10127C00042B0CD08F4B5B6803F00C03082B12D1A2
:10128C008C4B5B6803F48033B3F5803F0BD1894BF7
:10129C001B6803F40033002B6CD07B685B68002B5D
:1012AC0068D1012346E27B685B68B3F5803F06D1C9
:1012BC00804B1B687F4A43F4803313602EE07B68BD
:1012CC005B68002B0CD17B4B1B687A4A23F4803370
:1012DC001360784B1B68774A23F4802313601DE05E
:1012EC007B685B68B3F5A02F0CD1724B1B68714AFD
:1012FC0043F4802313606F4B1B686E4A43F48033B6
:10130C0013600BE06B4B1B686A4A23F48033136049
:10131C00684B1B68674A23F4802313607B685B6807
:10132C00002B13D0FFF7CCFC386108E0FFF7C8FCAA
:10133C0002463B69D31A642B01D90323FAE15D4BB6
:10134C001B6803F40033002BF0D014E0FFF7B8FC5B
:10135C00386108E0FFF7B4FC02463B69D31A642BF2
:10136C0001D90323E6E1534B1B6803F40033002B34
:10137C00F0D100E000BF7B681B6803F00203002B78
:10138C0063D04C4B5B6803F00C03002B0BD0494B28
:10139C005B6803F00C03082B1CD1464B5B6803F411
:1013AC008033002B16D1434B1B6803F00203002B38
:1013BC0005D07B681B69012B01D00123BAE13D4BA1
:1013CC001B6823F0F8027B685B69DB003949134327
:1013DC000B603AE07B681B69002B20D0364B012256
:1013EC001A60FFF76DFC386108E0FFF769FC0246F4
:1013FC003B69D31A022B01D903239BE12D4B1B68AC
:10140C0003F00203002BF0D02A4B1B6823F0F802E8
:10141C007B685B69DB00274913430B6015E0264BA7
:10142C0000221A60FFF74CFC386108E0FFF748FC1B
:10143C0002463B69D31A022B01D903237AE11D4BD7
:10144C001B6803F00203002BF0D17B681B6803F0D0
:10145C000803002B3AD07B689B69002B19D0174BE3
:10146C0001221A60FFF72CFC386108E0FFF728FC1A
:10147C0002463B69D31A022B01D903235AE10D4BC7
:10148C005B6A03F00203002BF0D0012000F09AFA03
:10149C001CE00A4B00221A60FFF712FC38610FE0C7
:1014AC00FFF70EFC02463B69D31A022B08D9032323
:1014BC0040E100BF00100240000042428004424262
:1014CC009E4B5B6A03F00203002BE9D17B681B681F
:1014DC0003F00403002B00F0A6800023FB75974B50
:1014EC00DB6903F08053002B0DD1944BDB69934ADD
:1014FC0043F08053D361914BDB6903F08053BB60A5
:10150C00BB680123FB758E4B1B6803F48073002BA7
:10151C0018D18B4B1B688A4A43F480731360FFF716
:10152C00CFFB386108E0FFF7CBFB02463B69D31ACF
:10153C00642B01D90323FDE0814B1B6803F48073FA
:10154C00002BF0D07B68DB68012B06D17B4B1B6A30
:10155C007A4A43F0010313622DE07B68DB68002BB1
:10156C000CD1764B1B6A754A23F001031362734B43
:10157C001B6A724A23F0040313621CE07B68DB686D
:10158C00052B0CD16D4B1B6A6C4A43F004031362A0
:10159C006A4B1B6A694A43F0010313620BE0674B09
:1015AC001B6A664A23F001031362644B1B6A634A8D
:1015BC0023F0040313627B68DB68002B15D0FFF764
:1015CC007FFB38610AE0FFF77BFB02463B69D31ACD
:1015DC0041F28832934201D90323ABE0574B1B6A8B
:1015EC0003F00203002BEED014E0FFF769FB386127
:1015FC000AE0FFF765FB02463B69D31A41F28832D9
:10160C00934201D9032395E04C4B1B6A03F0020370
:10161C00002BEED1FB7D012B05D1484BDB69474AF2
:10162C0023F08053D3617B68DB69002B00F0818051
:10163C00424B5B6803F00C03082B61D07B68DB69C1
:10164C00022B46D13F4B00221A60FFF739FB386161
:10165C0008E0FFF735FB02463B69D31A022B01D990
:10166C00032367E0354B1B6803F00073002BF0D1AC
:10167C007B681B6AB3F5803F08D1304B5B6823F461
:10168C0000327B689B682D4913434B602B4B5B6886
:10169C0023F474127B68196A7B685B6A0B432749D5
:1016AC0013434B60274B01221A60FFF709FB38618B
:1016BC0008E0FFF705FB02463B69D31A022B01D960
:1016CC00032337E01D4B1B6803F00073002BF0D095
:1016DC002FE01C4B00221A60FFF7F2FA386108E089
:1016EC00FFF7EEFA02463B69D31A022B01D903230A
:1016FC0020E0124B1B6803F00073002BF0D118E0B4
:10170C007B68DB69012B01D1012313E00B4B5B6878
:10171C00FB60FB6803F480327B681B6A9A4206D13B
:10172C00FB6803F470127B685B6A9A4201D0012358
:10173C0000E0002318461837BD4680BD001002405B
:10174C00007000406000424280B584B000AF786009
:10175C0039607B68002B01D10123D0E06A4B1B68F8
:10176C0003F007033A689A4210D9674B1B6823F0C1
:10177C00070265493B6813430B60634B1B6803F01E
:10178C0007033A689A4201D00123B8E07B681B68D2
:10179C0003F00203002B20D07B681B6803F00403CA
:1017AC00002B05D0594B5B68584A43F4E0635360F7
:1017BC007B681B6803F00803002B05D0534B5B6858
:1017CC00524A43F460535360504B5B6823F0F00271
:1017DC007B689B684D4913434B607B681B6803F027
:1017EC000103002B40D07B685B68012B07D1474B72
:1017FC001B6803F40033002B15D101237FE07B68B9
:10180C005B68022B07D1414B1B6803F00073002B64
:10181C0009D1012373E03D4B1B6803F00203002B3D
:10182C0001D101236BE0394B5B6823F003027B6829
:10183C005B68364913434B60FFF742FAF8600AE0E5
:10184C00FFF73EFA0246FB68D31A41F28832934204
:10185C0001D9032353E02D4B5B6803F00C027B682A
:10186C005B689B009A42EBD1274B1B6803F0070384
:10187C003A689A4210D2244B1B6823F00702224983
:10188C003B6813430B60204B1B6803F007033A685B
:10189C009A4201D0012332E07B681B6803F00403F9
:1018AC00002B08D0194B5B6823F4E0627B68DB6883
:1018BC00164913434B607B681B6803F00803002B2D
:1018CC0009D0124B5B6823F460527B681B69DB0008
:1018DC000E4913434B6000F021F802460B4B5B683A
:1018EC001B0903F00F030A49CB5C22FA03F3094AE4
:1018FC001360094B1B681846FFF7A0F90023184624
:10190C001037BD4680BD00BF0020024000100240D1
:10191C0034220008180000201C00002080B487B07E
:10192C0000AF0023FB600023BB6000237B6100231E
:10193C007B6000233B611E4B5B68FB60FB6803F024
:10194C000C03042B02D0082B03D027E0194B3B616E
:10195C0027E0FB689B0C03F00F03174AD35C7B60FA
:10196C00FB6803F48033002B10D0114B5B685B0CCD
:10197C0003F00103114AD35CBB607B680D4A02FB88
:10198C0003F2BB68B2FBF3F37B6104E07B680C4AA7
:10199C0002FB03F37B617B693B6102E0054B3B611E
:1019AC0000BF3B6918461C37BD4680BC704700BF62
:1019BC000010024000127A00442200085422000851
:1019CC0000093D0080B485B000AF78600A4B1B68FD
:1019DC000A4AA2FB03235B0A7A6802FB03F3FB604F
:1019EC0000BFFB685A1EFA60002BF9D100BF00BF84
:1019FC001437BD4680BC704718000020D34D6210D0
:101A0C0080B582B000AF78607B68002B01D10123D8
:101A1C0041E07B6893F83D30DBB2002B06D17B684C
:101A2C00002283F83C207868FFF770F87B6802226C
:101A3C0083F83D207B681A687B680433194610468E
:101A4C0000F056FA7B68012283F846207B6801225D
:101A5C0083F83E207B68012283F83F207B680122BB
:101A6C0083F840207B68012283F841207B680122A7
:101A7C0083F842207B68012283F843207B68012293
:101A8C0083F844207B68012283F845207B6801227F
:101A9C0083F83D20002318460837BD4680BD000062
:101AAC0080B485B000AF78607B6893F83D30DBB2D2
:101ABC00012B01D0012335E07B68022283F83D2005
:101ACC007B681B68DA687B681B6842F00102DA608D
:101ADC007B681B68164A934209D07B681B68B3F17C
:101AEC00804F04D07B681B68124A934211D17B68EB
:101AFC001B689B6803F00703FB60FB68062B10D088
:101B0C007B681B681A687B681B6842F001021A60CC
:101B1C0007E07B681B681A687B681B6842F001024F
:101B2C001A60002318461437BD4680BC704700BFAE
:101B3C00002C01400004004080B584B000AF7860F8
:101B4C007B681B68DB68FB607B681B681B69BB6080
:101B5C00BB6803F00203002B20D0FB6803F00203E8
:101B6C00002B1BD07B681B686FF002021A617B682C
:101B7C0001221A777B681B689B6903F00303002B17
:101B8C0003D0786800F098F905E0786800F08BF9DC
:101B9C00786800F09AF97B6800221A77BB6803F02A
:101BAC000403002B20D0FB6803F00403002B1BD094
:101BBC007B681B686FF004021A617B6802221A773B
:101BCC007B681B689B6903F44073002B03D0786817
:101BDC0000F072F905E0786800F065F9786800F0BB
:101BEC0074F97B6800221A77BB6803F00803002B9A
:101BFC0020D0FB6803F00803002B1BD07B681B680C
:101C0C006FF008021A617B6804221A777B681B68E4
:101C1C00DB6903F00303002B03D0786800F04CF968
:101C2C0005E0786800F03FF9786800F04EF97B68C1
:101C3C0000221A77BB6803F01003002B20D0FB683E
:101C4C0003F01003002B1BD07B681B686FF0100295
:101C5C001A617B6808221A777B681B68DB6903F4BE
:101C6C004073002B03D0786800F026F905E0786803
:101C7C0000F019F9786800F028F97B6800221A77CF
:101C8C00BB6803F00103002B0CD0FB6803F00103CD
:101C9C00002B07D07B681B686FF001021A61786813
:101CAC00FEF7EEFEBB6803F08003002B0CD0FB6844
:101CBC0003F08003002B07D07B681B686FF0800259
:101CCC001A61786800F06FFABB6803F04003002BD0
:101CDC000CD0FB6803F04003002B07D07B681B681B
:101CEC006FF040021A61786800F0F8F8BB6803F0F6
:101CFC002003002B0CD0FB6803F02003002B07D033
:101D0C007B681B686FF020021A61786800F042FA59
:101D1C0000BF1037BD4680BD80B584B000AF786081
:101D2C0039600023FB737B6893F83C30012B01D1A5
:101D3C000223B4E07B68012283F83C207B680222FA
:101D4C0083F83D207B681B689B68BB60BB6823F0F5
:101D5C007703BB60BB6823F47F43BB607B681B6865
:101D6C00BA689A603B681B68B3F5005F3ED0B3F568
:101D7C00005F00F28780B3F5805F00F08680B3F5DA
:101D8C00805F7FD8702B1AD0702B7BD8602B50D0F3
:101D9C00602B77D8502B3CD0502B73D8402B58D07D
:101DAC00402B6FD8302B64D0302B6BD8202B60D0CD
:101DBC00202B67D8002B5CD0102B5AD062E07B68AC
:101DCC0018683B6899683B685A683B68DB6800F0A8
:101DDC006AF97B681B689B68BB60BB6843F0770340
:101DEC00BB607B681B68BA689A604FE07B681868B8
:101DFC003B6899683B685A683B68DB6800F053F9AC
:101E0C007B681B689A687B681B6842F480429A6006
:101E1C003CE07B6818683B6859683B68DB681A468D
:101E2C0000F0CAF87B681B685021184600F021F9B5
:101E3C002CE07B6818683B6859683B68DB681A467D
:101E4C0000F0E8F87B681B686021184600F011F977
:101E5C001CE07B6818683B6859683B68DB681A466D
:101E6C0000F0AAF87B681B684021184600F001F9C5
:101E7C000CE07B681A683B681B681946104600F03A
:101E8C00F8F803E00123FB7300E000BF7B6801223C
:101E9C0083F83D207B68002283F83C20FB7B1846AE
:101EAC001037BD4680BD80B483B000AF786000BFF2
:101EBC000C37BD4680BC704780B483B000AF7860EF
:101ECC0000BF0C37BD4680BC704780B483B000AFF8
:101EDC00786000BF0C37BD4680BC704780B483B0BF
:101EEC0000AF786000BF0C37BD4680BC7047000067
:101EFC0080B485B000AF786039607B681B68FB608C
:101F0C007B682B4A934207D07B68B3F1804F03D098
:101F1C007B68284A934208D1FB6823F07003FB606E
:101F2C003B685B68FA681343FB607B68204A93420A
:101F3C0007D07B68B3F1804F03D07B681D4A934276
:101F4C0008D1FB6823F44073FB603B68DB68FA68DC
:101F5C001343FB60FB6823F080023B685B6913430F
:101F6C00FB607B68FA681A603B689A687B68DA6287
:101F7C003B681A687B689A627B680D4A934203D16E
:101F8C003B681A697B681A637B6801225A617B681B
:101F9C001B6903F00103002B05D07B681B6923F040
:101FAC0001027B681A6100BF1437BD4680BC7047C4
:101FBC00002C01400004004080B487B000AFF860F2
:101FCC00B9607A60FB681B6A7B61FB681B6A23F053
:101FDC000102FB681A62FB689B693B613B6923F059
:101FEC00F0033B617B681B013A6913433B617B69DE
:101FFC0023F00A037B617A69BB6813437B61FB683E
:10200C003A699A61FB687A691A6200BF1C37BD464F
:10201C0080BC704780B487B000AFF860B9607A605C
:10202C00FB681B6A7B61FB681B6A23F01002FB6870
:10203C001A62FB689B693B613B6923F470433B610B
:10204C007B681B033A6913433B617B6923F0A00354
:10205C007B61BB681B017A6913437B61FB683A693E
:10206C009A61FB687A691A6200BF1C37BD4680BC56
:10207C00704780B485B000AF786039607B689B682E
:10208C00FB60FB6823F07003FB603A68FB6813434A
:10209C0043F00703FB607B68FA689A6000BF143753
:1020AC00BD4680BC704780B487B000AFF860B960A3
:1020BC007A603B60FB689B687B617B6923F47F43A0
:1020CC007B613B681A027B681A43BB6813437A69CD
:1020DC0013437B61FB687A699A6000BF1C37BD466D
:1020EC0080BC704780B485B000AF786039607B6885
:1020FC0093F83C30012B01D1022341E07B68012293
:10210C0083F83C207B68022283F83D207B681B68A7
:10211C005B68FB607B681B689B68BB60FB6823F09B
:10212C007003FB603B681B68FA681343FB607B68B9
:10213C001B68FA685A607B681B68144A934209D082
:10214C007B681B68B3F1804F04D07B681B68104A16
:10215C0093420CD1BB6823F08003BB603B685B6887
:10216C00BA681343BB607B681B68BA689A607B686B
:10217C00012283F83D207B68002283F83C20002359
:10218C0018461437BD4680BC704700BF002C014078
:10219C000004004080B483B000AF786000BF0C37FF
:1021AC00BD4680BC704780B483B000AF786000BF80
:1021BC000C37BD4680BC704770B500260C4D0D4CDD
:1021CC00641BA410A64209D100F022F800260A4D87
:1021DC000A4C641BA410A64205D170BD55F8043BF3
:1021EC0098470136EEE755F8043B98470136F2E77D
:1021FC005822000858220008582200085C220008C7
:10220C0003460244934200D1704703F8011BF9E7DF
:10221C00F8B500BFF8BC08BC9E467047F8B500BFC7
:08222C00F8BC08BC9E46704797
:102234000000000000000000010203040607080972
:1022440002030405060708090A0B0C0D0E0F1010F3
:042254000102000083
:042258003101000848
:04225C000D01000868
:102260000F00000008000000320000000A0000001B
:102270000A0000000A00000000127A0010000000AE
:042280000100000059
:0400000508000BD113
:00000001FF
