:020000040800F2
:1000000000280020F5130008851300088B13000852
:1000100091130008971300089D13000800000000CA
:10002000000000000000000000000000A313000812
:10003000AF13000800000000BB130008C71300083E
:100040003D1400083D1400083D1400083D1400084C
:100050003D1400083D1400083D1400083D1400083C
:100060003D1400083D1400083D1400083D1400082C
:100070003D1400083D1400083D1400083D1400081C
:100080003D1400083D1400083D1400083D1400080C
:100090003D1400083D1400083D1400083D140008FC
:1000A0003D1400083D1400083D1400083D140008EC
:1000B000D51300083D140008000000003D1400089E
:1000C0003D14000800000000000000003D1400087E
:1000D000000000003D1400083D140008000000006E
:1000E0003D1400083D1400083D1400080000000005
:1000F0000000000000000000000000000000000000
:0C01000000000000000000005FF808F1A3
:10010C0010B5054C237833B9044B13B10448AFF345
:10011C0000800123237010BD5C0000200000000053
:10012C00402A000808B5034B1BB103490348AFF341
:10013C00008008BD0000000060000020402A00087C
:10014C0080B582B000AF78607B68092B00F28081AB
:10015C0001A252F823F000BF8D010008D501000860
:10016C001D02000865020008AD020008F502000837
:10017C003D03000885030008CD03000815040008A2
:10018C0000220121B44801F03FFC00220221B248B8
:10019C0001F03AFC00220421AF4801F035FC0022AA
:1001AC000821AD4801F030FC00221021AA4801F0D2
:1001BC002BFC00222021A84801F026FC0122402122
:1001CC00A54801F021FC43E101220121A24801F0E4
:1001DC001BFC00220221A04801F016FC0022042185
:1001EC009D4801F011FC012208219B4801F00CFCF8
:1001FC0001221021984801F007FC01222021964889
:10020C0001F002FC01224021934801F0FDFB1FE1AB
:10021C0000220121904801F0F7FB002202218E48B8
:10022C0001F0F2FB012204218B4801F0EDFB0022CE
:10023C000821894801F0E8FB00221021864801F0D2
:10024C00E3FB01222021844801F0DEFB0022402147
:10025C00814801F0D9FBFBE0002201217E4801F02E
:10026C00D3FB002202217C4801F0CEFB00220421AA
:10027C00794801F0C9FB00220821774801F0C4FB42
:10028C0001221021744801F0BFFB01222021724889
:10029C0001F0BAFB002240216F4801F0B5FBD7E01A
:1002AC00012201216C4801F0AFFB002202216A48B7
:1002BC0001F0AAFB00220421674801F0A5FB0122F2
:1002CC000821654801F0A0FB01221021624801F0D1
:1002DC009BFB00222021604801F096FB002240216C
:1002EC005D4801F091FBB3E0002201215A4801F076
:1002FC008BFB01220221584801F086FB00220421CD
:10030C00554801F081FB00220821534801F07CFB89
:10031C0001221021504801F077FB002220214E4889
:10032C0001F072FB002240214B4801F06DFB8FE085
:10033C0000220121484801F067FB012202214648B6
:10034C0001F062FB00220421434801F05DFB002216
:10035C000821414801F058FB002210213E4801F0D1
:10036C0053FB002220213C4801F04EFB002240218F
:10037C00394801F049FB6BE000220121364801F0BD
:10038C0043FB00220221344801F03EFB00220421F1
:10039C00314801F039FB012208212F4801F034FBD0
:1003AC00012210212C4801F02FFB012220212A4888
:1003BC0001F02AFB01224021274801F025FB47E0F0
:1003CC0000220121244801F01FFB002202212248B7
:1003DC0001F01AFB002204211F4801F015FB00223A
:1003EC0008211D4801F010FB002210211A4801F0D1
:1003FC000BFB00222021184801F006FB00224021B3
:10040C00154801F001FB23E000220121124801F004
:10041C00FBFA00220221104801F0F6FA0022042116
:10042C000D4801F0F1FA002208210B4801F0ECFA1A
:10043C0001221021084801F0E7FA00222021064889
:10044C0001F0E2FA00224021034801F0DDFA00BF7E
:10045C0000BF0837BD4680BD000C014080B400AF22
:10046C00394B1B785B08DBB25AB2374B1B78DB017C
:10047C005BB213435BB2DAB2334B1A70324B5B781C
:10048C005B08DBB25AB2304B5B78DB015BB21343D7
:10049C005BB2DAB22C4B5A702B4B9B785B08DBB2FD
:1004AC005AB2294B9B78DB015BB213435BB2DAB2D5
:1004BC00254B9A70244BDB785B08DBB25AB2224B8B
:1004CC00DB78DB015BB213435BB2DAB21E4BDA7042
:1004DC001D4B1B795B08DBB25AB21B4B1B79DB0142
:1004EC005BB213435BB2DAB2174B1A71164B5B79E2
:1004FC005B08DBB25AB2144B5B79DB015BB2134382
:10050C005BB2DAB2104B5A710F4B9B795B08DBB2C2
:10051C005AB20D4B9B79DB015BB213435BB2DAB27F
:10052C00094B9A71084BDB795B08DBB25AB2064B6C
:10053C00DB79DB015BB213435BB2DAB2024BDA71EB
:10054C0000BFBD4680BC70470C00002080B58CB04D
:10055C0000AF786039600123FB607B68002B4ED1C3
:10056C0000224FF48071BC4801F04EFA01224FF486
:10057C000071B94801F048FA01224FF48061B64885
:10058C0001F042FA01224FF40061B34801F03CFA49
:10059C0001224FF48051B04801F036FA01224FF499
:1005AC000051AD4801F030FA01224FF48041AA48C5
:1005BC0001F02AFA01224FF40041A74801F024FA75
:1005CC000023FB6218E0A54AFB6A52F82300A44AF8
:1005DC00FB6A32F813103B6803F00103002B0CBFCD
:1005EC0001230023DBB21A4601F00EFA3B685B10C4
:1005FC003B60FB6A0133FB62FB6A072BE3DD7B6824
:10060C00012B4ED101224FF48071934801F0FCF97B
:10061C0000224FF40071904801F0F6F901224FF4DA
:10062C0080618D4801F0F0F901224FF400618A4895
:10063C0001F0EAF901224FF48051874801F0E4F906
:10064C0001224FF40051844801F0DEF901224FF4ED
:10065C008041814801F0D8F901224FF400417E48D5
:10066C0001F0D2F90023BB6218E07C4ABB6A52F855
:10067C0023007B4ABB6A32F813103B6803F001037A
:10068C00002B0CBF01230023DBB21A4601F0BCF98E
:10069C003B685B103B60BB6A0133BB62BB6A072BD8
:1006AC00E3DD7B68022B4ED101224FF480716A4846
:1006BC0001F0AAF901224FF40071674801F0A4F986
:1006CC0000224FF48061644801F09EF901224FF43E
:1006DC000061614801F098F901224FF480515E48A5
:1006EC0001F092F901224FF400515B4801F08CF9B2
:1006FC0001224FF48041584801F086F901224FF451
:10070C000041554801F080F900237B6218E0534A00
:10071C007B6A52F82300524A7B6A32F813103B680A
:10072C0003F00103002B0CBF01230023DBB21A469C
:10073C0001F06AF93B685B103B607B6A01337B62BA
:10074C007B6A072BE3DD7B68032B4ED101224FF430
:10075C008071414801F058F901224FF400713E4874
:10076C0001F052F901224FF480613B4801F04CF941
:10077C0000224FF40061384801F046F901224FF491
:10078C008051354801F040F901224FF400513248B4
:10079C0001F03AF901224FF480412F4801F034F96D
:1007AC0001224FF400412C4801F02EF900233B624A
:1007BC0018E02A4A3B6A52F82300294A3B6A32F86D
:1007CC0013103B6803F00103002B0CBF0123002323
:1007DC00DBB21A4601F018F93B685B103B603B6AD0
:1007EC0001333B623B6A072BE3DD7B68042B55D15D
:1007FC0001224FF48071184801F006F901224FF4E0
:10080C000071154801F000F901224FF48061124883
:10081C0001F0FAF801224FF400610F4801F0F4F8EE
:10082C0000224FF480510C4801F0EEF801224FF4F5
:10083C000051094801F0E8F801224FF480410648C4
:10084C0001F0E2F801224FF40041034801F0DCF81A
:10085C000023FB611FE000BF000C014014000020CE
:10086C00340000208A4AFB6952F82300894AFB694C
:10087C0032F813103B6803F00103002B0CBF01236B
:10088C000023DBB21A4601F0BFF83B685B103B60FB
:10089C00FB690133FB61FB69072BE3DD7B68052BEF
:1008AC004ED101224FF480717B4801F0ADF801224A
:1008BC004FF40071784801F0A7F801224FF48061E1
:1008CC00754801F0A1F801224FF40061724801F063
:1008DC009BF801224FF480516F4801F095F80022EB
:1008EC004FF400516C4801F08FF801224FF4804115
:1008FC00694801F089F801224FF40041664801F083
:10090C0083F80023BB6118E0614ABB6952F82300ED
:10091C00604ABB6932F813103B6803F00103002BEB
:10092C000CBF01230023DBB21A4601F06DF83B68C3
:10093C005B103B60BB690133BB61BB69072BE3DD1B
:10094C007B68062B4ED101224FF48071524801F086
:10095C005BF801224FF400714F4801F055F8012269
:10096C004FF480614C4801F04FF801224FF40061C4
:10097C00494801F049F801224FF48051464801F0F2
:10098C0043F801224FF40051434801F03DF8002296
:10099C004FF48041404801F037F801224FF40041F8
:1009AC003D4801F031F800237B6118E0384A7B693F
:1009BC0052F82300374A7B6932F813103B6803F076
:1009CC000103002B0CBF01230023DBB21A4601F0FC
:1009DC001BF83B685B103B607B6901337B617B6977
:1009EC00072BE3DD7B68072B4ED101224FF480717E
:1009FC00294801F009F801224FF40071264801F052
:100A0C0003F801224FF48061234800F0FDFF01221E
:100A1C004FF40061204800F0F7FF01224FF48051A1
:100A2C001D4800F0F1FF01224FF400511A4800F06C
:100A3C00EBFF01224FF48041174800F0E5FF002244
:100A4C004FF40041144800F0DFFF00233B6118E035
:100A5C000F4A3B6952F823000E4A3B6932F81310D7
:100A6C003B6803F00103002B0CBF01230023DBB216
:100A7C001A4600F0C9FF3B685B103B603B690133D1
:100A8C003B613B69072BE3DD00BF3037BD4680BDC2
:100A9C001400002034000020000C014080B582B00E
:100AAC0000AF78607B68072B4AD801A252F823F07C
:100ABC00DD0A0008EB0A0008F90A0008070B000819
:100ACC00150B0008230B0008310B00083F0B000826
:100ADC001E4B1B7819460020FFF738FD31E01B4BED
:100AEC005B7819460120FFF731FD2AE0174B9B7804
:100AFC0019460220FFF72AFD23E0144BDB78194638
:100B0C000320FFF723FD1CE0104B1B791946042032
:100B1C00FFF71CFD15E00D4B5B7919460520FFF71F
:100B2C0015FD0EE0094B9B7919460620FFF70EFDCB
:100B3C0007E0064BDB7919460720FFF707FD00E0BD
:100B4C0000BF00BF0837BD4680BD00BF0C000020B1
:100B5C0080B582B000AF78607B68032B22D801A2ED
:100B6C0052F823F0810B00088D0B0008990B00083C
:100B7C00A50B00080E4B1B681846FFF7E1FA12E0B4
:100B8C000B4B5B681846FFF7DBFA0CE0084B9B68D5
:100B9C001846FFF7D5FA06E0054BDB681846FFF759
:100BAC00CFFA00E000BF00BF0837BD4680BD00BFD4
:100BBC007C00002080B400AF294B1B68092B06DC9D
:100BCC00284B00221A60264B1B68264A5360244B84
:100BDC001B68092B18DD224B1B68234A82FB03126E
:100BEC009210DB17D31A1F4A13601D4B19681E4B4A
:100BFC0083FB01239A10CB17D21A13469B00134484
:100C0C005B00CA1A174B5A60184B1B68092B06DC81
:100C1C00144B00229A60154B1B68124AD360134B7D
:100C2C001B68092B18DD114B1B680F4A82FB031242
:100C3C009210DB17D31A0B4A93600C4B19680A4BB2
:100C4C0083FB01239A10CB17D21A13469B00134433
:100C5C005B00CA1A034BDA6000BFBD4680BC70470C
:100C6C00000000207C0000206766666604000020FF
:100C7C0080B483B000AF7860074B1B687A6892FB36
:100C8C00F3F3064A1360064B00221A6000BF0C37C0
:100C9C00BD4680BC704700BF44000020B00000205F
:100CAC00B400002080B483B000AF7860074B1B68A1
:100CBC007A6892FBF3F3064A1360064B00221A6023
:100CCC0000BF0C37BD4680BC704700BF44000020FD
:100CDC00A8000020AC00002080B400AF114B1B68B2
:100CEC00002B0BDD0F4B1B68013B0E4A13600D4BA9
:100CFC001B68002B02D10C4B01221A600B4B1B689A
:100D0C00002B0BDD094B1B68013B084A1360074B9A
:100D1C001B68002B02D1064B01221A6000BFBD4696
:100D2C0080BC7047A8000020AC000020B000002060
:100D3C00B400002080B483B000AF7860074B1B6810
:100D4C007A6892FBF3F3064A1360064B00221A6092
:100D5C0000BF0C37BD4680BC704700BF440000206C
:100D6C00900000209400002080B400AF094B1B6859
:100D7C00002B0BDD074B1B68013B064A1360054B30
:100D8C001B68002B02D1044B01221A6000BFBD4628
:100D9C0080BC7047900000209400002080B483B089
:100DAC0000AF7860074B1B687A6892FBF3F3064A36
:100DBC001360064B00221A6000BF0C37BD4680BC86
:100DCC00704700BF48000020980000209C000020C5
:100DDC0080B400AF094B1B68002B0BDD074B1B6865
:100DEC00013B064A1360054B1B68002B02D1044BD8
:100DFC0001221A6000BFBD4680BC704798000020DD
:100E0C009C00002080B483B000AF7860074B1B6857
:100E1C007A6892FBF3F3064A1360064B00221A60C1
:100E2C0000BF0C37BD4680BC704700BF4C00002093
:100E3C00A0000020A400002080B400AF094B1B6868
:100E4C00002B0BDD074B1B68013B064A1360054B5F
:100E5C001B68002B02D1044B01221A6000BFBD4657
:100E6C0080BC7047A0000020A400002080B582B098
:100E7C0000AF00F0DFFA00F035F900F0BBF900F03C
:100E8C006DF98B4801F01EFA4FF47A70FFF752FFA0
:100E9C00FA20FFF783FF4FF47A70FFF7B3FFC820F7
:100EAC00FFF700FF4FF47A70FFF7E2FE00237B6040
:100EBC00804B1B68012B29D17F4B1B6801337E4A69
:100ECC0013607D4B1B683B2B07DD7B4B00221A60AC
:100EDC007A4B1B680133794A1360784B1B683B2BA8
:100EEC0007DD764B00221A60754B1B680133744A80
:100EFC001360734B1B68172B02DD714B00221A60B9
:100F0C00FFF758FE4FF47A70FFF714FF6D4B1B6818
:100F1C00012B12D16C4B1B685A1C6B490A6018468A
:100F2C00FFF7BCFD684B1B680822934202DB664B43
:100F3C0000221A600A20FFF7B5FE644B1B68012BD8
:100F4C0006D16348FFF78AFA4FF47A70FFF790FEE8
:100F5C00604B1B68012B0BD120215F4800F06CFD0E
:100F6C0010215D4800F068FD4FF47A70FFF74AFFDE
:100F7C005A4B1B68012B9BD1594B1B680422934283
:100F8C0002DB574B00221A607B68002B20D1002219
:100F9C004021514800F038FD012280214E4800F0DC
:100FAC0033FD01224FF480714B4800F02DFD0122DE
:100FBC004FF40071484800F027FD494B1B685A1C40
:100FCC0047490A601846FFF7C3FD01237B606AE0BE
:100FDC007B68012B20D1012240213F4800F014FDF9
:100FEC00002280213C4800F00FFD01224FF480715B
:100FFC00394800F009FD01224FF40071364800F029
:10100C0003FD374B1B685A1C35490A601846FFF71D
:10101C009FFD02237B6046E07B68022B20D10122DE
:10102C0040212D4800F0F0FC012280212A4800F0DC
:10103C00EBFC00224FF48071274800F0E5FC012204
:10104C004FF40071244800F0DFFC254B1B685A1C40
:10105C0023490A601846FFF77BFD03237B6022E0DF
:10106C007B68032B1FD1012240211B4800F0CCFCD4
:10107C0001228021184800F0C7FC01224FF4807136
:10108C00154800F0C1FC00224FF40071124800F02A
:10109C00BBFC134B1B685A1C11490A601846FFF71E
:1010AC0057FD00237B60FA20FFF778FE00E700BFB6
:1010BC00B80000209400002008000020040000204C
:1010CC0000000020AC0000208C000020B4000020A8
:1010DC000C000020A4000020000801409C0000200F
:1010EC007800002080B590B000AF07F118032822DB
:1010FC000021184601F096FC3B1D00221A605A6034
:10110C009A60DA601A610223BB610123BB6210236F
:10111C00FB6200237B6307F11803184600F0A6FC62
:10112C000346002B01D000F0CBF80F237B6000238B
:10113C00BB600023FB6000233B6100237B613B1DF4
:10114C000021184600F012FF0346002B01D000F0DE
:10115C00B7F800BF4037BD4680BD000080B586B0F3
:10116C0000AF07F1080300221A605A609A60DA6037
:10117C003B4600221A605A601D4B4FF080421A60A9
:10118C001B4B41F63F725A60194B00229A60184B68
:10119C000922DA60164B00221A61154B00229A6163
:1011AC00134801F03FF80346002B01D000F088F8FB
:1011BC004FF48053BB6007F1080319460C4801F04B
:1011CC00BDF90346002B01D000F07AF800233B60F8
:1011DC0000237B603B461946054801F095FB03460E
:1011EC00002B01D000F06CF800BF1837BD4680BD55
:1011FC00B800002080B586B000AF07F108030022CC
:10120C001A605A609A60DA60224B9B69214A43F05B
:10121C00040393611F4B9B6903F004037B607B68A1
:10122C001C4B9B691B4A43F008039361194B9B6948
:10123C0003F008033B603B6800224FF6FC71164834
:10124C0000F0E2FB00224FF67F71144800F0DCFB4B
:10125C004FF6FC73BB600123FB6000233B61022350
:10126C007B6107F1080319460B4800F053FA4FF65F
:10127C007F73BB600123FB6000233B6102237B6116
:10128C0007F108031946054800F044FA00BF183767
:10129C00BD4680BD0010024000080140000C01401A
:1012AC0080B582B000AF7860FFF75EFDFFF790FD70
:1012BC00FFF7C2FDFFF710FD00BF0837BD4680BD2C
:1012CC0080B400AF72B600BFFEE7000080B485B0FA
:1012DC0000AF154B9B69144A43F001039361124B09
:1012EC009B6903F00103BB60BB680F4BDB690E4AC3
:1012FC0043F08053D3610C4BDB6903F080537B606C
:10130C007B680A4B5B68FB60FB6823F0E063FB6067
:10131C00FB6843F08063FB60044AFB68536000BFCA
:10132C001437BD4680BC70470010024000000140DD
:10133C0080B584B000AF78607B681B68B3F1804FD8
:10134C0013D10C4BDB690B4A43F00103D361094BFE
:10135C00DB6903F00103FB60FB68002200211C2009
:10136C0000F0A1F91C2000F0BAF900BF1037BD46FF
:10137C0080BD00BF0010024080B400AFFEE780B417
:10138C0000AFFEE780B400AFFEE780B400AFFEE72D
:10139C0080B400AFFEE780B400AF00BFBD4680BC98
:1013AC00704780B400AF00BFBD4680BC704780B4AE
:1013BC0000AF00BFBD4680BC704780B500AF00F0E9
:1013CC007FF800BF80BD000080B500AF024800F080
:1013DC00C5FF00BF80BD00BFB800002080B400AFC7
:1013EC0000BFBD4680BC7047FFF7F8FF0B480C49A7
:1013FC000C4A002302E0D458C4500433C4188C4265
:10140C00F9D3094A094C002301E013600432A242CB
:10141C00FBD301F0E3FAFFF729FD70470000002031
:10142C005C000020842A00085C00002004010020DD
:10143C00FEE7000080B500AF084B1B68074A43F07D
:10144C0010031360032000F023F90F2000F008F8BC
:10145C00FFF73CFF0023184680BD00BF0020024070
:10146C0080B582B000AF7860124B1A68124B1B78B3
:10147C0019464FF47A73B3FBF1F3B2FBF3F318464E
:10148C0000F03BF90346002B01D001230EE07B68F2
:10149C000F2B0AD8002279684FF0FF3000F003F9C7
:1014AC00064A7B681360002300E0012318460837C6
:1014BC00BD4680BD50000020580000205400002084
:1014CC0080B400AF054B1B781A46054B1B681344C0
:1014DC00034A136000BFBD4680BC70475800002013
:1014EC000001002080B400AF024B1B681846BD46BB
:1014FC0080BC70470001002080B485B000AF7860DC
:10150C007B6803F00703FB600C4BDB68BB60BA68BD
:10151C004FF6FF031340BB60FB681A02BB68134312
:10152C0043F0BF6343F40033BB60044ABB68D36031
:10153C0000BF1437BD4680BC704700BF00ED00E013
:10154C0080B400AF044BDB681B0A03F0070318469A
:10155C00BD4680BC704700BF00ED00E080B483B096
:10156C0000AF0346FB7197F90730002B0BDBFB79BF
:10157C0003F01F02064997F907305B09012000FAB6
:10158C0002F241F8232000BF0C37BD4680BC7047E7
:10159C0000E100E080B483B000AF03463960FB711A
:1015AC0097F90730002B0ADB3B68DAB20C4997F944
:1015BC0007301201D2B20B4483F800230AE03B68D7
:1015CC00DAB20849FB7903F00F03043B1201D2B2E3
:1015DC000B441A7600BF0C37BD4680BC704700BF69
:1015EC0000E100E000ED00E080B489B000AFF860ED
:1015FC00B9607A60FB6803F00703FB61FB69C3F118
:10160C000703042B28BF0423BB61FB690433062B9F
:10161C0002D9FB69033B00E000237B614FF0FF32F2
:10162C00BB6902FA03F3DA43BB681A407B699A4040
:10163C004FF0FF317B6901FA03F3D9437B680B4010
:10164C00134318462437BD4680BC704780B582B022
:10165C0000AF78607B68013BB3F1807F01D301233D
:10166C000FE00A4A7B68013B53600F214FF0FF30BB
:10167C00FFF790FF054B00229A60044B07221A607B
:10168C00002318460837BD4680BD00BF10E000E0BF
:10169C0080B582B000AF78607868FFF72DFF00BF8F
:1016AC000837BD4680BD80B586B000AF0346B96033
:1016BC007A60FB7300237B61FFF742FF78617A68E5
:1016CC00B9687869FFF790FF024697F90F30114619
:1016DC001846FFF75FFF00BF1837BD4680BD80B5C9
:1016EC0082B000AF0346FB7197F907301846FFF73D
:1016FC0035FF00BF0837BD4680BD80B582B000AF56
:10170C0078607868FFF7A2FF034618460837BD4695
:10171C0080BD000080B48BB000AF786039600023CE
:10172C007B6200233B6248E101227B6A02FA03F3ED
:10173C00FB613B681B68FA691340BB61BA69FB69C2
:10174C009A4240F037813B685B68A34A93425ED073
:10175C00A14A934275D8A14A934258D09F4A9342CA
:10176C006FD89F4A934252D09D4A934269D89D4A62
:10177C0093424CD09B4A934263D89B4A934246D0A7
:10178C00994A93425DD8122B2AD8122B59D801A210
:10179C0052F823F01B180008F5170008071800086A
:1017AC00491800084F1800084F1800084F18000877
:1017BC004F1800084F1800084F1800084F18000861
:1017CC004F1800084F1800084F1800084F18000851
:1017DC004F1800084F180008FD17000811180008D2
:1017EC00824A934213D02CE03B68DB683B6229E0D1
:1017FC003B68DB6804333B6224E03B68DB680833FE
:10180C003B621FE03B68DB680C333B621AE03B68D1
:10181C009B68002B02D104233B6213E03B689B685E
:10182C00012B05D108233B627B68FA691A6109E038
:10183C0008233B627B68FA695A6103E000233B6230
:10184C0000E000BFBB69FF2B01D87B6801E07B681F
:10185C0004337B61BB69FF2B02D87B6A9B0002E0DF
:10186C007B6A083B9B003B617B691A680F213B69D3
:10187C0001FA03F3DB431A40396A3B6901FA03F3BB
:10188C001A437B691A603B685B6803F08053002B3A
:10189C0000F09080564B9B69554A43F001039361CD
:1018AC00534B9B6903F00103BB60BB68514A7B6AD5
:1018BC009B08023352F82330FB607B6A03F003036E
:1018CC009B000F2202FA03F3DB43FA681340FB6020
:1018DC007B68494A93420DD07B68484A934207D0B3
:1018EC007B68474A934201D1022304E0032302E0C0
:1018FC00012300E000237A6A02F003029200934075
:10190C00FA681343FB603B497B6A9B080233FA6815
:10191C0041F823203B685B6803F48013002B06D04E
:10192C00384B9A683749BB6913438B6006E0354BDB
:10193C009A68BB69DB43334913408B603B685B6837
:10194C0003F40013002B06D02E4BDA682D49BB692B
:10195C001343CB6006E02B4BDA68BB69DB432949A8
:10196C001340CB603B685B6803F40033002B06D05C
:10197C00244B5A682349BB6913434B6006E0214B47
:10198C005A68BB69DB431F4913404B603B685B687B
:10199C0003F48033002B06D01A4B1A681949BB6923
:1019AC0013430B6006E0174B1A68BB69DB43154900
:1019BC0013400B607B6A01337B623B681A687B6A5D
:1019CC0022FA03F3002B7FF4AFAE00BF00BF2C371D
:1019DC00BD4680BC704700BF0000321000003110C3
:1019EC000000221000002110000012100000111045
:1019FC00001002400000014000080140000C0140B2
:101A0C00001001400004014080B483B000AF786046
:101A1C000B467B8013467B707B78002B03D07A8837
:101A2C007B681A6103E07B881A047B681A6100BF2B
:101A3C000C37BD4680BC704780B485B000AF786071
:101A4C000B467B807B68DB68FB607A88FB68134005
:101A5C001A04FB68D9437B880B401A437B681A61D4
:101A6C0000BF1437BD4680BC7047000080B586B0FF
:101A7C0000AF78607B68002B01D101236CE27B689E
:101A8C001B6803F00103002B00F08780924B5B680E
:101A9C0003F00C03042B0CD08F4B5B6803F00C038E
:101AAC00082B12D18C4B5B6803F48033B3F5803F69
:101ABC000BD1894B1B6803F40033002B6CD07B6873
:101ACC005B68002B68D1012346E27B685B68B3F549
:101ADC00803F06D1804B1B687F4A43F480331360F0
:101AEC002EE07B685B68002B0CD17B4B1B687A4A21
:101AFC0023F480331360784B1B68774A23F48023DC
:101B0C0013601DE07B685B68B3F5A02F0CD1724BA2
:101B1C001B68714A43F4802313606F4B1B686E4A39
:101B2C0043F4803313600BE06B4B1B686A4A23F45D
:101B3C0080331360684B1B68674A23F4802313605F
:101B4C007B685B68002B13D0FFF7CCFC386108E096
:101B5C00FFF7C8FC02463B69D31A642B01D9032357
:101B6C00FAE15D4B1B6803F40033002BF0D014E05A
:101B7C00FFF7B8FC386108E0FFF7B4FC02463B699C
:101B8C00D31A642B01D90323E6E1534B1B6803F4EE
:101B9C000033002BF0D100E000BF7B681B6803F022
:101BAC000203002B63D04C4B5B6803F00C03002B3F
:101BBC000BD0494B5B6803F00C03082B1CD1464B34
:101BCC005B6803F48033002B16D1434B1B6803F086
:101BDC000203002B05D07B681B69012B01D001236C
:101BEC00BAE13D4B1B6823F0F8027B685B69DB00B4
:101BFC00394913430B603AE07B681B69002B20D0FA
:101C0C00364B01221A60FFF76DFC386108E0FFF7D4
:101C1C0069FC02463B69D31A022B01D903239BE1D1
:101C2C002D4B1B6803F00203002BF0D02A4B1B68D2
:101C3C0023F0F8027B685B69DB00274913430B60D8
:101C4C0015E0264B00221A60FFF74CFC386108E0C7
:101C5C00FFF748FC02463B69D31A022B01D9032338
:101C6C007AE11D4B1B6803F00203002BF0D17B685B
:101C7C001B6803F00803002B3AD07B689B69002B90
:101C8C0019D0174B01221A60FFF72CFC386108E0C1
:101C9C00FFF728FC02463B69D31A022B01D9032318
:101CAC005AE10D4B5B6A03F00203002BF0D00120CC
:101CBC0000F09AFA1CE00A4B00221A60FFF712FCA3
:101CCC0038610FE0FFF70EFC02463B69D31A022B7A
:101CDC0008D9032340E100BF00100240000042423B
:101CEC00800442429E4B5B6A03F00203002BE9D155
:101CFC007B681B6803F00403002B00F0A680002314
:101D0C00FB75974BDB6903F08053002B0DD1944B83
:101D1C00DB69934A43F08053D361914BDB6903F049
:101D2C008053BB60BB680123FB758E4B1B6803F4AF
:101D3C008073002B18D18B4B1B688A4A43F4807339
:101D4C001360FFF7CFFB386108E0FFF7CBFB0246CF
:101D5C003B69D31A642B01D90323FDE0814B1B682B
:101D6C0003F48073002BF0D07B68DB68012B06D169
:101D7C007B4B1B6A7A4A43F0010313622DE07B68AC
:101D8C00DB68002B0CD1764B1B6A754A23F00103E0
:101D9C001362734B1B6A724A23F0040313621CE038
:101DAC007B68DB68052B0CD16D4B1B6A6C4A43F0CE
:101DBC00040313626A4B1B6A694A43F00103136202
:101DCC000BE0674B1B6A664A23F001031362644BFA
:101DDC001B6A634A23F0040313627B68DB68002BE5
:101DEC0015D0FFF77FFB38610AE0FFF77BFB02465B
:101DFC003B69D31A41F28832934201D90323ABE0F9
:101E0C00574B1B6A03F00203002BEED014E0FFF7D4
:101E1C0069FB38610AE0FFF765FB02463B69D31AA0
:101E2C0041F28832934201D9032395E04C4B1B6A53
:101E3C0003F00203002BEED1FB7D012B05D1484BA7
:101E4C00DB69474A23F08053D3617B68DB69002B45
:101E5C0000F08180424B5B6803F00C03082B61D0CF
:101E6C007B68DB69022B46D13F4B00221A60FFF7DF
:101E7C0039FB386108E0FFF735FB02463B69D31AA2
:101E8C00022B01D9032367E0354B1B6803F0007369
:101E9C00002BF0D17B681B6AB3F5803F08D1304B27
:101EAC005B6823F400327B689B682D4913434B60BD
:101EBC002B4B5B6823F474127B68196A7B685B6A32
:101ECC000B43274913434B60274B01221A60FFF742
:101EDC0009FB386108E0FFF705FB02463B69D31AA2
:101EEC00022B01D9032337E01D4B1B6803F0007351
:101EFC00002BF0D02FE01C4B00221A60FFF7F2FAF7
:101F0C00386108E0FFF7EEFA02463B69D31A022B60
:101F1C0001D9032320E0124B1B6803F00073002B44
:101F2C00F0D118E07B68DB69012B01D1012313E0B0
:101F3C000B4B5B68FB60FB6803F480327B681B6AAD
:101F4C009A4206D1FB6803F470127B685B6A9A4272
:101F5C0001D0012300E0002318461837BD4680BD90
:101F6C0000100240007000406000424280B584B016
:101F7C0000AF786039607B68002B01D10123D0E081
:101F8C006A4B1B6803F007033A689A4210D9674BF7
:101F9C001B6823F0070265493B6813430B60634BD6
:101FAC001B6803F007033A689A4201D00123B8E09A
:101FBC007B681B6803F00203002B20D07B681B6836
:101FCC0003F00403002B05D0594B5B68584A43F4CB
:101FDC00E06353607B681B6803F00803002B05D09B
:101FEC00534B5B68524A43F460535360504B5B68ED
:101FFC0023F0F0027B689B684D4913434B607B6870
:10200C001B6803F00103002B40D07B685B68012B3D
:10201C0007D1474B1B6803F40033002B15D1012368
:10202C007FE07B685B68022B07D1414B1B6803F098
:10203C000073002B09D1012373E03D4B1B6803F0A7
:10204C000203002B01D101236BE0394B5B6823F0B9
:10205C0003027B685B68364913434B60FFF742FA17
:10206C00F8600AE0FFF73EFA0246FB68D31A41F229
:10207C008832934201D9032353E02D4B5B6803F064
:10208C000C027B685B689B009A42EBD1274B1B6868
:10209C0003F007033A689A4210D2244B1B6823F0D2
:1020AC00070222493B6813430B60204B1B6803F06B
:1020BC0007033A689A4201D0012332E07B681B681F
:1020CC0003F00403002B08D0194B5B6823F4E06287
:1020DC007B68DB68164913434B607B681B6803F015
:1020EC000803002B09D0124B5B6823F460527B6809
:1020FC001B69DB000E4913434B6000F021F80246CC
:10210C000B4B5B681B0903F00F030A49CB5C22FAEB
:10211C0003F3094A1360094B1B681846FFF7A0F933
:10212C00002318461037BD4680BD00BF002002407A
:10213C0000100240582A00085000002054000020D3
:10214C0080B487B000AF0023FB600023BB6000238A
:10215C007B6100237B6000233B611E4B5B68FB6053
:10216C00FB6803F00C03042B02D0082B03D027E0F0
:10217C00194B3B6127E0FB689B0C03F00F03174ADC
:10218C00D35C7B60FB6803F48033002B10D0114BC5
:10219C005B685B0C03F00103114AD35CBB607B688A
:1021AC000D4A02FB03F2BB68B2FBF3F37B6104E064
:1021BC007B680C4A02FB03F37B617B693B6102E0A9
:1021CC00054B3B6100BF3B6918461C37BD4680BCC4
:1021DC00704700BF0010024000127A00682A000805
:1021EC00782A000800093D0080B485B000AF786003
:1021FC000A4B1B680A4AA2FB03235B0A7A6802FBA0
:10220C0003F3FB6000BFFB685A1EFA60002BF9D188
:10221C0000BF00BF1437BD4680BC70475000002083
:10222C00D34D621080B582B000AF78607B68002B14
:10223C0001D1012341E07B6893F83D30DBB2002BE8
:10224C0006D17B68002283F83C207868FFF770F891
:10225C007B68022283F83D207B681A687B68043314
:10226C001946104600F056FA7B68012283F8462086
:10227C007B68012283F83E207B68012283F83F2093
:10228C007B68012283F840207B68012283F841207F
:10229C007B68012283F842207B68012283F843206B
:1022AC007B68012283F844207B68012283F8452057
:1022BC007B68012283F83D20002318460837BD4671
:1022CC0080BD000080B485B000AF78607B6893F867
:1022DC003D30DBB2012B01D0012335E07B680222BB
:1022EC0083F83D207B681B68DA687B681B6842F0CA
:1022FC000102DA607B681B68164A934209D07B683E
:10230C001B68B3F1804F04D07B681B68124A934260
:10231C0011D17B681B689B6803F00703FB60FB68AB
:10232C00062B10D07B681B681A687B681B6842F010
:10233C0001021A6007E07B681B681A687B681B68DF
:10234C0042F001021A60002318461437BD4680BCC7
:10235C00704700BF002C01400004004080B584B0E1
:10236C0000AF78607B681B68DB68FB607B681B6870
:10237C001B69BB60BB6803F00203002B20D0FB6819
:10238C0003F00203002B1BD07B681B686FF002026A
:10239C001A617B6801221A777B681B689B6903F0C2
:1023AC000303002B03D0786800F098F905E07868F7
:1023BC0000F08BF9786800F09AF97B6800221A77A4
:1023CC00BB6803F00403002B20D0FB6803F004036C
:1023DC00002B1BD07B681B686FF004021A617B68B2
:1023EC0002221A777B681B689B6903F44073002BED
:1023FC0003D0786800F072F905E0786800F065F9B0
:10240C00786800F074F97B6800221A77BB6803F0D7
:10241C000803002B20D0FB6803F00803002B1BD013
:10242C007B681B686FF008021A617B6804221A77BC
:10243C007B681B68DB6903F00303002B03D078680F
:10244C0000F04CF905E0786800F03FF9786800F08E
:10245C004EF97B6800221A77BB6803F01003002B3F
:10246C0020D0FB6803F01003002B1BD07B681B688B
:10247C006FF010021A617B6808221A777B681B6860
:10248C00DB6903F44073002B03D0786800F026F965
:10249C0005E0786800F019F9786800F028F97B6895
:1024AC0000221A77BB6803F00103002B0CD0FB68E9
:1024BC0003F00103002B07D07B681B686FF001024F
:1024CC001A617868FEF7ECFEBB6803F08003002B02
:1024DC000CD0FB6803F08003002B07D07B681B68D3
:1024EC006FF080021A61786800F06FFABB6803F035
:1024FC004003002B0CD0FB6803F04003002B07D0EB
:10250C007B681B686FF040021A61786800F0F8F87D
:10251C00BB6803F02003002B0CD0FB6803F02003F6
:10252C00002B07D07B681B686FF020021A6178685B
:10253C0000F042FA00BF1037BD4680BD80B584B0B4
:10254C0000AF786039600023FB737B6893F83C30F4
:10255C00012B01D10223B4E07B68012283F83C20DB
:10256C007B68022283F83D207B681B689B68BB60FC
:10257C00BB6823F07703BB60BB6823F47F43BB606D
:10258C007B681B68BA689A603B681B68B3F5005F90
:10259C003ED0B3F5005F00F28780B3F5805F00F0AA
:1025AC008680B3F5805F7FD8702B1AD0702B7BD8C8
:1025BC00602B50D0602B77D8502B3CD0502B73D83D
:1025CC00402B58D0402B6FD8302B64D0302B6BD88D
:1025DC00202B60D0202B67D8002B5CD0102B5AD02E
:1025EC0062E07B6818683B6899683B685A683B688E
:1025FC00DB6800F06AF97B681B689B68BB60BB6892
:10260C0043F07703BB607B681B68BA689A604FE045
:10261C007B6818683B6899683B685A683B68DB685C
:10262C0000F053F97B681B689A687B681B6842F45E
:10263C0080429A603CE07B6818683B6859683B684C
:10264C00DB681A4600F0CAF87B681B6850211846F4
:10265C0000F021F92CE07B6818683B6859683B68EE
:10266C00DB681A4600F0E8F87B681B6860211846A6
:10267C0000F011F91CE07B6818683B6859683B68EE
:10268C00DB681A4600F0AAF87B681B6840211846E4
:10269C0000F001F90CE07B681A683B681B6819466E
:1026AC00104600F0F8F803E00123FB7300E000BFD4
:1026BC007B68012283F83D207B68002283F83C2054
:1026CC00FB7B18461037BD4680BD80B483B000AF8D
:1026DC00786000BF0C37BD4680BC704780B483B0B7
:1026EC0000AF786000BF0C37BD4680BC704780B42B
:1026FC0083B000AF786000BF0C37BD4680BC70471C
:10270C0080B483B000AF786000BF0C37BD4680BC8E
:10271C007047000080B485B000AF786039607B688A
:10272C001B68FB607B682B4A934207D07B68B3F134
:10273C00804F03D07B68284A934208D1FB6823F072
:10274C007003FB603B685B68FA681343FB607B6853
:10275C00204A934207D07B68B3F1804F03D07B684B
:10276C001D4A934208D1FB6823F44073FB603B681D
:10277C00DB68FA681343FB60FB6823F080023B685C
:10278C005B691343FB607B68FA681A603B689A6864
:10279C007B68DA623B681A687B689A627B680D4AD0
:1027AC00934203D13B681A697B681A637B680122E8
:1027BC005A617B681B6903F00103002B05D07B6811
:1027CC001B6923F001027B681A6100BF1437BD46F8
:1027DC0080BC7047002C01400004004080B487B0DE
:1027EC0000AFF860B9607A60FB681B6A7B61FB68BC
:1027FC001B6A23F00102FB681A62FB689B693B6150
:10280C003B6923F0F0033B617B681B013A6913437E
:10281C003B617B6923F00A037B617A69BB681343D4
:10282C007B61FB683A699A61FB687A691A6200BF3E
:10283C001C37BD4680BC704780B487B000AFF860D1
:10284C00B9607A60FB681B6A7B61FB681B6A23F0CA
:10285C001002FB681A62FB689B693B613B6923F4BD
:10286C0070433B617B681B033A6913433B617B6993
:10287C0023F0A0037B61BB681B017A6913437B6166
:10288C00FB683A699A61FB687A691A6200BF1C3767
:10289C00BD4680BC704780B485B000AF78603960AD
:1028AC007B689B68FB60FB6823F07003FB603A68F5
:1028BC00FB68134343F00703FB607B68FA689A607C
:1028CC0000BF1437BD4680BC704780B487B000AFE2
:1028DC00F860B9607A603B60FB689B687B617B69E0
:1028EC0023F47F437B613B681A027B681A43BB6805
:1028FC0013437A6913437B61FB687A699A6000BF62
:10290C001C37BD4680BC704780B485B000AF786082
:10291C0039607B6893F83C30012B01D1022341E0F4
:10292C007B68012283F83C207B68022283F83D20DF
:10293C007B681B685B68FB607B681B689B68BB6083
:10294C00FB6823F07003FB603B681B68FA68134359
:10295C00FB607B681B68FA685A607B681B68144ACA
:10296C00934209D07B681B68B3F1804F04D07B681D
:10297C001B68104A93420CD1BB6823F08003BB60E8
:10298C003B685B68BA681343BB607B681B68BA68BA
:10299C009A607B68012283F83D207B68002283F8D3
:1029AC003C20002318461437BD4680BC704700BF3E
:1029BC00002C01400004004080B483B000AF78606C
:1029CC0000BF0C37BD4680BC704780B483B000AFED
:1029DC00786000BF0C37BD4680BC704770B50026D0
:1029EC000C4D0D4C641BA410A64209D100F022F82A
:1029FC0000260A4D0A4C641BA410A64205D170BDDA
:102A0C0055F8043B98470136EEE755F8043B9847D8
:102A1C000136F2E77C2A00087C2A00087C2A000890
:102A2C00802A000803460244934200D1704703F801
:102A3C00011BF9E7F8B500BFF8BC08BC9E4670470F
:0C2A4C00F8B500BFF8BC08BC9E467047FF
:102A58000000000000000000010203040607080946
:102A680002030405060708090A0B0C0D0E0F1010C7
:042A78000102000057
:042A7C00310100081C
:042A80000D0100083C
:102A84000F000000080000003200000040A09E413A
:102A9400419EA04000080140000801400008014098
:102AA40000080140000801400008014000080140FE
:102AB4000008014004000800000400080010002081
:102AC400004000800A0000000A0000000A00000024
:0C2AD40000127A00100000000100000059
:04000005080013F5E7
:00000001FF
